{
    "_format": "hh-sol-artifact-1",
    "contractName": "Governance",
    "sourceName": "contracts/Governance.sol",
    "abi": [
        {
            "inputs": [],
            "stateMutability": "nonpayable",
            "type": "constructor"
        },
        {
            "anonymous": false,
            "inputs": [
                {
                    "indexed": false,
                    "internalType": "address",
                    "name": "account",
                    "type": "address"
                },
                {
                    "indexed": false,
                    "internalType": "bytes32",
                    "name": "role",
                    "type": "bytes32"
                }
            ],
            "name": "roleGranted",
            "type": "event"
        },
        {
            "anonymous": false,
            "inputs": [
                {
                    "indexed": false,
                    "internalType": "address",
                    "name": "account",
                    "type": "address"
                },
                {
                    "indexed": false,
                    "internalType": "uint256",
                    "name": "candidateIndex",
                    "type": "uint256"
                }
            ],
            "name": "shareholderVoted",
            "type": "event"
        },
        {
            "inputs": [],
            "name": "CHAIRMAN_ROLE",
            "outputs": [
                {
                    "internalType": "bytes32",
                    "name": "",
                    "type": "bytes32"
                }
            ],
            "stateMutability": "view",
            "type": "function"
        },
        {
            "inputs": [],
            "name": "STUDENT_ROLE",
            "outputs": [
                {
                    "internalType": "bytes32",
                    "name": "",
                    "type": "bytes32"
                }
            ],
            "stateMutability": "view",
            "type": "function"
        },
        {
            "inputs": [],
            "name": "TEACHER_ROLE",
            "outputs": [
                {
                    "internalType": "bytes32",
                    "name": "",
                    "type": "bytes32"
                }
            ],
            "stateMutability": "view",
            "type": "function"
        },
        {
            "inputs": [
                {
                    "internalType": "string[]",
                    "name": "names",
                    "type": "string[]"
                }
            ],
            "name": "addCandidates",
            "outputs": [],
            "stateMutability": "nonpayable",
            "type": "function"
        },
        {
            "inputs": [
                {
                    "internalType": "bool",
                    "name": "status",
                    "type": "bool"
                }
            ],
            "name": "changeResultStatus",
            "outputs": [],
            "stateMutability": "nonpayable",
            "type": "function"
        },
        {
            "inputs": [
                {
                    "internalType": "bool",
                    "name": "status",
                    "type": "bool"
                }
            ],
            "name": "changeVotingAllowed",
            "outputs": [],
            "stateMutability": "nonpayable",
            "type": "function"
        },
        {
            "inputs": [
                {
                    "internalType": "address",
                    "name": "account",
                    "type": "address"
                }
            ],
            "name": "getRole",
            "outputs": [
                {
                    "internalType": "bytes32",
                    "name": "",
                    "type": "bytes32"
                }
            ],
            "stateMutability": "view",
            "type": "function"
        },
        {
            "inputs": [
                {
                    "internalType": "uint256",
                    "name": "candidateIdx",
                    "type": "uint256"
                }
            ],
            "name": "getVoteCount",
            "outputs": [
                {
                    "internalType": "uint256",
                    "name": "",
                    "type": "uint256"
                }
            ],
            "stateMutability": "view",
            "type": "function"
        },
        {
            "inputs": [
                {
                    "internalType": "bytes32",
                    "name": "role",
                    "type": "bytes32"
                },
                {
                    "internalType": "address",
                    "name": "account",
                    "type": "address"
                }
            ],
            "name": "grantRole",
            "outputs": [
                {
                    "internalType": "bool",
                    "name": "",
                    "type": "bool"
                }
            ],
            "stateMutability": "nonpayable",
            "type": "function"
        },
        {
            "inputs": [],
            "name": "resultPublic",
            "outputs": [
                {
                    "internalType": "bool",
                    "name": "",
                    "type": "bool"
                }
            ],
            "stateMutability": "view",
            "type": "function"
        },
        {
            "inputs": [
                {
                    "internalType": "uint256",
                    "name": "candidateIndex",
                    "type": "uint256"
                }
            ],
            "name": "vote",
            "outputs": [
                {
                    "internalType": "bool",
                    "name": "",
                    "type": "bool"
                }
            ],
            "stateMutability": "nonpayable",
            "type": "function"
        },
        {
            "inputs": [],
            "name": "votingAllowed",
            "outputs": [
                {
                    "internalType": "bool",
                    "name": "",
                    "type": "bool"
                }
            ],
            "stateMutability": "view",
            "type": "function"
        },
        {
            "inputs": [],
            "name": "votingResult",
            "outputs": [
                {
                    "components": [
                        {
                            "internalType": "string",
                            "name": "name",
                            "type": "string"
                        },
                        {
                            "internalType": "uint256",
                            "name": "voteCount",
                            "type": "uint256"
                        }
                    ],
                    "internalType": "struct Governance.candidate[]",
                    "name": "",
                    "type": "tuple[]"
                }
            ],
            "stateMutability": "view",
            "type": "function"
        }
    ],
    "bytecode": "0x608060405260016000806101000a81548160ff02191690831515021790555060008060016101000a81548160ff02191690831515021790555034801561004457600080fd5b507fdc1958ce1178d6eb32ccc146dcea8933f1978155832913ec88fa509962e1b413600360003373ffffffffffffffffffffffffffffffffffffffff1673ffffffffffffffffffffffffffffffffffffffff168152602001908152602001600020819055506002339080600181540180825580915050600190039060005260206000200160009091909190916101000a81548173ffffffffffffffffffffffffffffffffffffffff021916908373ffffffffffffffffffffffffffffffffffffffff160217905550611e228061011b6000396000f3fe608060405234801561001057600080fd5b50600436106100cf5760003560e01c806386e5c15a1161008c578063b2c2f2e811610066578063b2c2f2e814610214578063cfb62dee14610244578063f7be43fb14610262578063f81f2b4514610280576100cf565b806386e5c15a146101bc578063a097dc4b146101da578063a999e562146101f8576100cf565b80630121b93f146100d457806317e760bb1461010457806327f3eef8146101225780632f2ff15d1461014057806344276733146101705780634a1d63c8146101a0575b600080fd5b6100ee60048036038101906100e991906112bc565b61029c565b6040516100fb9190611647565b60405180910390f35b61010c610576565b6040516101199190611647565b60405180910390f35b61012a610587565b6040516101379190611647565b60405180910390f35b61015a60048036038101906101559190611280565b61059a565b6040516101679190611647565b60405180910390f35b61018a600480360381019061018591906111e9565b610993565b6040516101979190611662565b60405180910390f35b6101ba60048036038101906101b59190611257565b6109dc565b005b6101c4610b03565b6040516101d19190611662565b60405180910390f35b6101e2610b27565b6040516101ef9190611662565b60405180910390f35b610212600480360381019061020d9190611212565b610b4b565b005b61022e600480360381019061022991906112bc565b610db9565b60405161023b91906117fd565b60405180910390f35b61024c610e0e565b6040516102599190611625565b60405180910390f35b61026a610fc7565b6040516102779190611662565b60405180910390f35b61029a60048036038101906102959190611257565b610feb565b005b60008060001b600360003373ffffffffffffffffffffffffffffffffffffffff1673ffffffffffffffffffffffffffffffffffffffff168152602001908152602001600020541415610323576040517f08c379a000000000000000000000000000000000000000000000000000000000815260040161031a9061171d565b60405180910390fd5b600460003373ffffffffffffffffffffffffffffffffffffffff1673ffffffffffffffffffffffffffffffffffffffff16815260200190815260200160002060000160009054906101000a900460ff16156103b3576040517f08c379a00000000000000000000000000000000000000000000000000000000081526004016103aa9061173d565b60405180910390fd5b6001151560008054906101000a900460ff16151514610407576040517f08c379a00000000000000000000000000000000000000000000000000000000081526004016103fe9061167d565b60405180910390fd5b816001805490501161044e576040517f08c379a00000000000000000000000000000000000000000000000000000000081526004016104459061175d565b60405180910390fd5b6001808381548110610489577f4e487b7100000000000000000000000000000000000000000000000000000000600052603260045260246000fd5b906000526020600020906002020160010160008282546104a991906118d5565b92505081905550604051806040016040528060011515815260200183815250600460003373ffffffffffffffffffffffffffffffffffffffff1673ffffffffffffffffffffffffffffffffffffffff16815260200190815260200160002060008201518160000160006101000a81548160ff021916908315150217905550602082015181600101559050507fa66baa52d4be244ac3e48ec82a60aafef36596e691f8061f25805cb2a76c56b533836040516105659291906115fc565b60405180910390a160019050919050565b60008054906101000a900460ff1681565b600060019054906101000a900460ff1681565b6000827f36a5c4aaacb6b388bbd448bf11096b7dafc5652bcc9046084fd0e95b1fb0b2cc8114806105ea57507fd16e204b8a42a15ab0ea6bb8ec1ecdfbe69f38074fc865323af19efe7d9573d981145b8061061457507fdc1958ce1178d6eb32ccc146dcea8933f1978155832913ec88fa509962e1b41381145b610653576040517f08c379a000000000000000000000000000000000000000000000000000000000815260040161064a9061169d565b60405180910390fd5b827fdc1958ce1178d6eb32ccc146dcea8933f1978155832913ec88fa509962e1b413600360008373ffffffffffffffffffffffffffffffffffffffff1673ffffffffffffffffffffffffffffffffffffffff168152602001908152602001600020541415801561072257507f36a5c4aaacb6b388bbd448bf11096b7dafc5652bcc9046084fd0e95b1fb0b2cc600360008373ffffffffffffffffffffffffffffffffffffffff1673ffffffffffffffffffffffffffffffffffffffff1681526020019081526020016000205414155b801561078d57507fd16e204b8a42a15ab0ea6bb8ec1ecdfbe69f38074fc865323af19efe7d9573d9600360008373ffffffffffffffffffffffffffffffffffffffff1673ffffffffffffffffffffffffffffffffffffffff1681526020019081526020016000205414155b6107cc576040517f08c379a00000000000000000000000000000000000000000000000000000000081526004016107c3906116dd565b60405180910390fd5b600073ffffffffffffffffffffffffffffffffffffffff168473ffffffffffffffffffffffffffffffffffffffff16141561080657600080fd5b7fdc1958ce1178d6eb32ccc146dcea8933f1978155832913ec88fa509962e1b413600360003373ffffffffffffffffffffffffffffffffffffffff1673ffffffffffffffffffffffffffffffffffffffff16815260200190815260200160002054146108a7576040517f08c379a000000000000000000000000000000000000000000000000000000000815260040161089e9061179d565b60405180910390fd5b84600360008673ffffffffffffffffffffffffffffffffffffffff1673ffffffffffffffffffffffffffffffffffffffff168152602001908152602001600020819055506002849080600181540180825580915050600190039060005260206000200160009091909190916101000a81548173ffffffffffffffffffffffffffffffffffffffff021916908373ffffffffffffffffffffffffffffffffffffffff1602179055507fca9e25debdcab331dd07d4db1b330c6bf0216cb3acda291fde9d9b85644f2025848660405161097f9291906115d3565b60405180910390a160019250505092915050565b6000600360008373ffffffffffffffffffffffffffffffffffffffff1673ffffffffffffffffffffffffffffffffffffffff168152602001908152602001600020549050919050565b7fdc1958ce1178d6eb32ccc146dcea8933f1978155832913ec88fa509962e1b413600360003373ffffffffffffffffffffffffffffffffffffffff1673ffffffffffffffffffffffffffffffffffffffff168152602001908152602001600020541480610aa757507fd16e204b8a42a15ab0ea6bb8ec1ecdfbe69f38074fc865323af19efe7d9573d9600360003373ffffffffffffffffffffffffffffffffffffffff1673ffffffffffffffffffffffffffffffffffffffff16815260200190815260200160002054145b610ae6576040517f08c379a0000000000000000000000000000000000000000000000000000000008152600401610add9061177d565b60405180910390fd5b80600060016101000a81548160ff02191690831515021790555050565b7fd16e204b8a42a15ab0ea6bb8ec1ecdfbe69f38074fc865323af19efe7d9573d981565b7fdc1958ce1178d6eb32ccc146dcea8933f1978155832913ec88fa509962e1b41381565b7fdc1958ce1178d6eb32ccc146dcea8933f1978155832913ec88fa509962e1b413600360003373ffffffffffffffffffffffffffffffffffffffff1673ffffffffffffffffffffffffffffffffffffffff168152602001908152602001600020541480610c1657507fd16e204b8a42a15ab0ea6bb8ec1ecdfbe69f38074fc865323af19efe7d9573d9600360003373ffffffffffffffffffffffffffffffffffffffff1673ffffffffffffffffffffffffffffffffffffffff16815260200190815260200160002054145b610c55576040517f08c379a0000000000000000000000000000000000000000000000000000000008152600401610c4c906117bd565b60405180910390fd5b6032828290501115610c9c576040517f08c379a0000000000000000000000000000000000000000000000000000000008152600401610c93906116bd565b60405180910390fd5b60005b82829050811015610db45760016040518060400160405280858585818110610cf0577f4e487b7100000000000000000000000000000000000000000000000000000000600052603260045260246000fd5b9050602002810190610d029190611818565b8080601f016020809104026020016040519081016040528093929190818152602001838380828437600081840152601f19601f820116905080830192505050505050508152602001600081525090806001815401808255809150506001900390600052602060002090600202016000909190919091506000820151816000019080519060200190610d949291906110a8565b506020820151816001015550508080610dac906119e2565b915050610c9f565b505050565b600060018281548110610df5577f4e487b7100000000000000000000000000000000000000000000000000000000600052603260045260246000fd5b9060005260206000209060020201600101549050919050565b60607f36a5c4aaacb6b388bbd448bf11096b7dafc5652bcc9046084fd0e95b1fb0b2cc600360003373ffffffffffffffffffffffffffffffffffffffff1673ffffffffffffffffffffffffffffffffffffffff168152602001908152602001600020541415610ece5760011515600060019054906101000a900460ff16151514610ecd576040517f08c379a0000000000000000000000000000000000000000000000000000000008152600401610ec4906116fd565b60405180910390fd5b5b6001805480602002602001604051908101604052809291908181526020016000905b82821015610fbe5783829060005260206000209060020201604051806040016040529081600082018054610f23906119b0565b80601f0160208091040260200160405190810160405280929190818152602001828054610f4f906119b0565b8015610f9c5780601f10610f7157610100808354040283529160200191610f9c565b820191906000526020600020905b815481529060010190602001808311610f7f57829003601f168201915b5050505050815260200160018201548152505081526020019060010190610ef0565b50505050905090565b7f36a5c4aaacb6b388bbd448bf11096b7dafc5652bcc9046084fd0e95b1fb0b2cc81565b7fdc1958ce1178d6eb32ccc146dcea8933f1978155832913ec88fa509962e1b413600360003373ffffffffffffffffffffffffffffffffffffffff1673ffffffffffffffffffffffffffffffffffffffff168152602001908152602001600020541461108c576040517f08c379a0000000000000000000000000000000000000000000000000000000008152600401611083906117dd565b60405180910390fd5b806000806101000a81548160ff02191690831515021790555050565b8280546110b4906119b0565b90600052602060002090601f0160209004810192826110d6576000855561111d565b82601f106110ef57805160ff191683800117855561111d565b8280016001018555821561111d579182015b8281111561111c578251825591602001919060010190611101565b5b50905061112a919061112e565b5090565b5b8082111561114757600081600090555060010161112f565b5090565b60008135905061115a81611d90565b92915050565b60008083601f84011261117257600080fd5b8235905067ffffffffffffffff81111561118b57600080fd5b6020830191508360208202830111156111a357600080fd5b9250929050565b6000813590506111b981611da7565b92915050565b6000813590506111ce81611dbe565b92915050565b6000813590506111e381611dd5565b92915050565b6000602082840312156111fb57600080fd5b60006112098482850161114b565b91505092915050565b6000806020838503121561122557600080fd5b600083013567ffffffffffffffff81111561123f57600080fd5b61124b85828601611160565b92509250509250929050565b60006020828403121561126957600080fd5b6000611277848285016111aa565b91505092915050565b6000806040838503121561129357600080fd5b60006112a1858286016111bf565b92505060206112b28582860161114b565b9150509250929050565b6000602082840312156112ce57600080fd5b60006112dc848285016111d4565b91505092915050565b60006112f18383611578565b905092915050565b6113028161192b565b82525050565b60006113138261187f565b61131d81856118a2565b93508360208202850161132f8561186f565b8060005b8581101561136b578484038952815161134c85826112e5565b945061135783611895565b925060208a01995050600181019050611333565b50829750879550505050505092915050565b6113868161193d565b82525050565b61139581611949565b82525050565b60006113a68261188a565b6113b081856118b3565b93506113c081856020860161197d565b6113c981611a89565b840191505092915050565b60006113e16012836118c4565b91506113ec82611a9a565b602082019050919050565b6000611404601b836118c4565b915061140f82611ac3565b602082019050919050565b60006114276035836118c4565b915061143282611aec565b604082019050919050565b600061144a6028836118c4565b915061145582611b3b565b604082019050919050565b600061146d6015836118c4565b915061147882611b8a565b602082019050919050565b6000611490601b836118c4565b915061149b82611bb3565b602082019050919050565b60006114b3601d836118c4565b91506114be82611bdc565b602082019050919050565b60006114d6601c836118c4565b91506114e182611c05565b602082019050919050565b60006114f96044836118c4565b915061150482611c2e565b606082019050919050565b600061151c6030836118c4565b915061152782611ca3565b604082019050919050565b600061153f603e836118c4565b915061154a82611cf2565b604082019050919050565b60006115626039836118c4565b915061156d82611d41565b604082019050919050565b60006040830160008301518482036000860152611595828261139b565b91505060208301516115aa60208601826115b5565b508091505092915050565b6115be81611973565b82525050565b6115cd81611973565b82525050565b60006040820190506115e860008301856112f9565b6115f5602083018461138c565b9392505050565b600060408201905061161160008301856112f9565b61161e60208301846115c4565b9392505050565b6000602082019050818103600083015261163f8184611308565b905092915050565b600060208201905061165c600083018461137d565b92915050565b6000602082019050611677600083018461138c565b92915050565b60006020820190508181036000830152611696816113d4565b9050919050565b600060208201905081810360008301526116b6816113f7565b9050919050565b600060208201905081810360008301526116d68161141a565b9050919050565b600060208201905081810360008301526116f68161143d565b9050919050565b6000602082019050818103600083015261171681611460565b9050919050565b6000602082019050818103600083015261173681611483565b9050919050565b60006020820190508181036000830152611756816114a6565b9050919050565b60006020820190508181036000830152611776816114c9565b9050919050565b60006020820190508181036000830152611796816114ec565b9050919050565b600060208201905081810360008301526117b68161150f565b9050919050565b600060208201905081810360008301526117d681611532565b9050919050565b600060208201905081810360008301526117f681611555565b9050919050565b600060208201905061181260008301846115c4565b92915050565b6000808335600160200384360303811261183157600080fd5b80840192508235915067ffffffffffffffff82111561184f57600080fd5b60208301925060018202360383131561186757600080fd5b509250929050565b6000819050602082019050919050565b600081519050919050565b600081519050919050565b6000602082019050919050565b600082825260208201905092915050565b600082825260208201905092915050565b600082825260208201905092915050565b60006118e082611973565b91506118eb83611973565b9250827fffffffffffffffffffffffffffffffffffffffffffffffffffffffffffffffff038211156119205761191f611a2b565b5b828201905092915050565b600061193682611953565b9050919050565b60008115159050919050565b6000819050919050565b600073ffffffffffffffffffffffffffffffffffffffff82169050919050565b6000819050919050565b60005b8381101561199b578082015181840152602081019050611980565b838111156119aa576000848401525b50505050565b600060028204905060018216806119c857607f821691505b602082108114156119dc576119db611a5a565b5b50919050565b60006119ed82611973565b91507fffffffffffffffffffffffffffffffffffffffffffffffffffffffffffffffff821415611a2057611a1f611a2b565b5b600182019050919050565b7f4e487b7100000000000000000000000000000000000000000000000000000000600052601160045260246000fd5b7f4e487b7100000000000000000000000000000000000000000000000000000000600052602260045260246000fd5b6000601f19601f8301169050919050565b7f566f74696e67206e6f7420616c6c6f7765640000000000000000000000000000600082015250565b7f43616e6e6f742061737369676e20696e76616c696420726f6c65210000000000600082015250565b7f4e756d626572206f662063616e6469646174657320697320677265617465722060008201527f7468616e20616d6f756e7420616c6c6f7761626c650000000000000000000000602082015250565b7f4163636f756e742068617320616c7265616479206265656e2061737369676e6560008201527f64206120726f6c65000000000000000000000000000000000000000000000000602082015250565b7f526573756c74206e6f7420796574207075626c69630000000000000000000000600082015250565b7f566f746572206d7573742062652061207368617265686f6c6465720000000000600082015250565b7f5368617265686f6c6465722068617320616c726561647920766f746564000000600082015250565b7f43616e64696461746520696e646578206f7574206f6620626f756e6400000000600082015250565b7f4f6e6c79206163636f756e747320776974682043484149524d414e206f72205460008201527f45414348455220524f4c452063616e206368616e676520726573756c7420737460208201527f6174757300000000000000000000000000000000000000000000000000000000604082015250565b7f4f6e6c79206163636f756e747320776974682043484149524d414e20524f4c4560008201527f2063616e206772616e7420726f6c657300000000000000000000000000000000602082015250565b7f4f6e6c79206163636f756e747320776974682043484149524d414e206f72205460008201527f45414348455220524f4c452063616e206164642063616e646964617465730000602082015250565b7f4f6e6c79206163636f756e7420776974682043484149524d414e20524f4c452060008201527f63616e206368616e676520766f74696e6720616c6c6f77656400000000000000602082015250565b611d998161192b565b8114611da457600080fd5b50565b611db08161193d565b8114611dbb57600080fd5b50565b611dc781611949565b8114611dd257600080fd5b50565b611dde81611973565b8114611de957600080fd5b5056fea2646970667358221220872372474d33ab476503d1ca7d632caac68df3b718fbe73ea750f4d7f58177e564736f6c63430008040033",
    "linkReferences": {},
    "deployedLinkReferences": {}
}